 # test data for unit testing
00505696A70F1EE882821DC01C56CD8800505696A70F1EE882821DC01C56ED8800505696A70F1EE882821DC01C56CD8800000300000000001VZD1605                       2019-03-0420180419362                   9999-12-312GM880201E        VEKIYBEN       0000105G0971584Q        ST 0000000001000 F000000 0496AH A72DE1AJ4B+TJ1+2PD/2PE                                                                           1       2018-03-132018-03-130001-01-012017-03-032017-08-250001-01-01000000015518110890113602XR4702615404702843251                                                            
00505696A70F1EE882821DC01C56CD8800505696A70F1EE882821DC01C570D8800505696A70F1EE882821DC01C56ED8800002800000000001VZD1605                       2019-03-0420180419362                   9999-12-315G0971584Q                       0000104H0972208D        ST 0000000001000 F000000 0496AH A72DE1CJ4B+TJ1+2PD/2PE                                                                           1       2018-03-132018-03-130001-01-012017-07-032017-12-250001-01-01000000025518110900113802XR4702615394735671773                                                            
00505696A70F1EE882821DC01C56CD8800505696A70F1EE882821DC01C572D8800505696A70F1EE882821DC01C56ED8800002900000000001VZD1605                       2019-03-0420180419362                   9999-12-315G0971584Q                       000020N  90764903       ST 0000000001000 F000000 0496AH A72DE1CJ4B+TJ1+2PD/2PE                                                                           1       2018-03-132018-03-130001-01-012017-03-032017-08-250001-01-01000000035518110910114002XR4702615384735671763                                                            
00505696A70F1EE882821DC01C56CD8800505696A70F1EE882821DC01C574D8800505696A70F1EE882821DC01C56ED8800003000000000001VZD1605                       2019-03-0420180419362                   9999-12-315G0971584Q                       000030N  90764701       ST 0000000001000 F000000 0496AH A72DE1CJ4B+TJ1+2PD/2PE                                                                           1       2018-03-132018-03-130001-01-012017-06-122017-12-040001-01-01000000045518110920114202XR4702615374735671753                                                            
00505696A70F1EE882821DC01C56CD8800505696A70F1EE882821DC01C576D8800505696A70F1EE882821DC01C56ED8800003100000000001VZD1605                       2019-03-0420180419362                   9999-12-315G0971584Q                       0000405G0971824E        ST 0000000001000 F000000 0496AH A72DE1CJ4B+TJ1+2PD/2PE                                                                           1       2018-03-132018-03-130001-01-012017-03-032017-08-250001-01-01000000055518110930114402XR4702615364735671747                                                            
00505696A70F1EE882821DC01C56CD8800505696A70F1EE882821DC01C578D8800505696A70F1EE882821DC01C56ED8800003200000000001VZD1605                       2019-03-0420180419362                   9999-12-315G0971584Q                       0000508K0972562         ST 0000000001000 F000000 0496AH A72DE1CJ4B+TJ1+2PD/2PE                                                                           1       2018-03-132018-03-130001-01-012017-03-032017-08-250001-01-01000000065518110940114602XR4702615354735671733                                                            
